:0400000092EF00F08B
:100008005B82FACF55F0FBCF56F0D9CF57F0DACF55
:1000180058F0F2AC12EF00F014EF00F088EF00F0A7
:10002800A3A819EF00F01BEF00F031EF00F0A4A82F
:1000380020EF00F022EF00F031EF00F002D82FEFB0
:1000480000F00500FA6E4950FD6E4A50FE6EF850F9
:10005800FF6EFA50120088EF00F0A3AA36EF00F006
:1000680038EF00F04EEF00F0A4AA3DEF00F03FEFAC
:1000780000F04EEF00F002D84CEF00F00500FA6EE9
:100088004750FD6E4850FE6EF850FF6EFA50120051
:1000980088EF00F09DA853EF00F055EF00F06BEFEC
:1000A80000F09EA85AEF00F05CEF00F06BEF00F054
:1000B80002D869EF00F00500FA6E5350FD6E5450F7
:1000C800FE6EF850FF6EFA50120088EF00F09DAAFD
:1000D80070EF00F072EF00F088EF00F09EAA77EF63
:1000E80000F079EF00F088EF00F002D886EF00F01A
:1000F8000500FA6E5150FD6E5250FE6EF850FF6EBC
:10010800FA50120088EF00F058C0DAFF57C0D9FF44
:1001180056C0FBFF55C0FAFF5B92110052EF09F081
:100F000000003650010FD96EDA6ADF6AA6A48BEFB3
:100F100007F08DEF07F09FEF07F03650010FD96E05
:100F2000DA6ADF8202D89FEF07F00500FA6E4550BB
:100F3000FD6E4650FE6EF850FF6EFA501200A6A2EB
:100F4000A4EF07F0A6EF07F0B8EF07F03650010F57
:100F5000D96EDA6ADF8402D8B8EF07F00500FA6EBE
:100F60004350FD6E4450FE6EF850FF6EFA50120072
:100F70003650010FD96EDA6ADF50D8B4C2EF07F0ED
:100F8000C4EF07F0D3EF07F002D8D1EF07F0050068
:100F9000FA6E4150FD6E4250FE6EF850FF6EFA50F0
:100FA0001200D5EF07F02CEC09F012003D50190F9C
:100FB000D96EDA6ADF6AABA4E0EF07F0E2EF07F080
:100FC000F4EF07F03D50190FD96EDA6ADF8202D8CC
:100FD000F4EF07F00500FA6E4F50FD6E5050FE6EB4
:100FE000F850FF6EFA501200ABA2F9EF07F0FBEFDA
:100FF00007F00DEF08F03D50190FD96EDA6ADF8463
:1010000002D80DEF08F00500FA6E4D50FD6E4E50FF
:10101000FE6EF850FF6EFA5012003D50190FD96E57
:10102000DA6ADF50D8B417EF08F019EF08F028EFAC
:1010300008F002D826EF08F00500FA6E4B50FD6E5E
:101040004C50FE6EF850FF6EFA5012002AEF08F076
:101050003FEC09F01200A39A020E596E0F0E5A6E61
:10106000A1EC09F0A398900E596E110E5A6E9CECEB
:1010700009F0080EB96E900EA66E260EBA6E190E05
:101080007B6E000E7C6EB80E596E130E5A6EABEC72
:1010900009F09C0E596E130E5A6EA6EC09F0A20EC2
:1010A000596E130E5A6EB0EC09F0000E336E000E3E
:1010B000396E000E386E080E376E000E366E000E5A
:1010C000356E000E346EA38A12009D9AAC0E596ED6
:1010D0000F0E5A6EBAEC09F09D98CC0E596E110E97
:1010E0005A6EB5EC09F0080EA76E900EAB6E240E8A
:1010F000AC6E190EAF6E000E7D6EBA0E596E130EE9
:101100005A6EC4EC09F0A80E596E130E5A6EBFEC5D
:1011100009F0AE0E596E130E5A6EC9EC09F0000EAE
:101120003A6E000E406E000E3F6E080E3E6E000ED0
:101130003D6E000E3C6E000E3B6E9D8A1200596E95
:101140003750D8B4A6EF08F0A8EF08F0A0EF08F0E9
:10115000A3B8ADEF08F0AFEF08F0B3EF08F059C057
:1011600079FFC6EF08F0A3983950110FD96EDA6AEB
:1011700059C0DFFF392A070E3964C1EF08F0C3EF09
:1011800008F0C5EF08F0000E396E3706A38812008C
:10119000080E3760CEEF08F0D0EF08F0E4EF08F06B
:1011A0003850110FD96EDA6ADF50796E382A070E7F
:1011B0003864DDEF08F0DFEF08F0E1EF08F0000E33
:1011C000386E372AE5EF08F0A3981200080E3E604B
:1011D000ECEF08F0EEEF08F002EF09F03F50290FB6
:1011E000D96EDA6ADF50AD6E3F2A070E3F64FBEF1F
:1011F00008F0FDEF08F0FFEF08F0000E3F6E3E2A0A
:1012000003EF09F09D981200000E896E000E8A6EA1
:10121000000E8B6EEF0E926EBF0E936EBB0E946E31
:101220001F0E0F015D6F070E5C6F000E5B6FF18E7E
:101230001200DAEC09F004EC09F07DEC09F095EC11
:1012400009F074EC09F05FEC09F086EC09F065EC4C
:1012500008F02BEC08F012003650090FD96EDA6A4C
:101260007ACFDFFF362A070E366439EF09F03BEFFD
:1012700009F03DEF09F0000E366E342A12003D50A1
:10128000210FD96EDA6AAECFDFFF3D2A070E3D642B
:101290004CEF09F04EEF09F050EF09F0000E3D6EF3
:1012A0003B2A120000EE01F0400EEE6AE806FDE176
:1012B0005B905B92000EF86E00016AEF09F0010E80
:1012C000C26E000EC16E000EC06E000EC46E000E27
:1012D000C36E120019EC09F0F28EF28C8EEC09F05C
:1012E00070EF09F092EF00F00C0E0F01506F000E3E
:1012F000516F000E526F99921200300ED36E000E95
:10130000D26E000E9B6E000E9A6E1200F90ECB6E1E
:10131000000ECC6E9E92040ECA6E1200FE0E9FEC62
:1013200008F0510E9FEC08F01200000EBB6E000E8C
:10133000BD6E000EBC6E120059C049F05AC04AF092
:10134000120059C047F05AC048F0120059C043F08B
:101350005AC044F0120059C045F05AC046F012007D
:1013600059C041F05AC042F0120059C053F05AC05F
:1013700054F0120059C051F05AC052F0120059C036
:101380004DF05AC04EF0120059C04FF05AC050F004
:10139000120059C04BF05AC04CF01200A698A68813
:1013A00012002CEC09F01200AB98AB8812003FEC55
:0C13B00009F01200D09E12001200120082
:020000040030CA
:0E00000015087F50FF8991FF0FC00FE00F40E1
:00000001FF
