:0400000096EF00F087
:100008005A82FACF3CF0FBCF3DF0D9CF3EF0DACFA1
:100018003FF0F2AC12EF00F014EF00F08CEF00F0BC
:10002800A3A819EF00F01BEF00F032EF00F0A4A82E
:1000380020EF00F022EF00F032EF00F002D830EFAE
:1000480000F005000001FA6E9051FD6E9151FE6EB0
:10005800F850FF6EFA5012008CEF00F0A3AA37EFA9
:1000680000F039EF00F050EF00F0A4AA3EEF00F0E6
:1000780040EF00F050EF00F002D84EEF00F005001E
:100088000001FA6E8E51FD6E8F51FE6EF850FF6EB4
:10009800FA5012008CEF00F09DA855EF00F057EFD2
:1000A80000F06EEF00F09EA85CEF00F05EEF00F04D
:1000B8006EEF00F002D86CEF00F005000001FA6E58
:1000C8009A51FD6E9B51FE6EF850FF6EFA50120069
:1000D8008CEF00F09DAA73EF00F075EF00F08CEF45
:1000E80000F09EAA7AEF00F07CEF00F08CEF00F0B1
:1000F80002D88AEF00F005000001FA6E9851FD6EF3
:100108009951FE6EF850FF6EFA5012008CEF00F015
:100118003FC0DAFF3EC0D9FF3DC0FBFF3CC0FAFF3D
:080128005A921100F2EF0AF0F7
:100F0000004261727265206F752044656261727281
:100F1000653F0D0A00446562617272650D0A004208
:0D0F2000617272650D0A0025630D0A000064
:100F2E002BEC0BF0F28EF28C61EC0BF0000E00014C
:100F3E009F6F2E0E9E6F9EC040F09FC041F0C4EC7E
:100F4E000AF0010E556E3AEC0BF043EC0AF0596EB6
:100F5E00595000019C6F9D6B270E556E9CC056F02C
:100F6E009DC057F03AEC0BF06C0E00019C199D11D0
:100F7E00D8A4C4EF07F0C6EF07F0D0EF07F0000ECD
:100F8E009F6F470E9E6F1F0E556E3AEC0BF0E2EF01
:100F9E0007F0750E9C199D11D8A4D8EF07F0DAEF63
:100FAE0007F0E2EF07F0000E9F6F150E9E6F150E05
:100FBE00556E3AEC0BF000019F5107E1150E9E5D48
:100FCE00D8B0ECEF07F0EEEF07F0F4EF07F0000EFD
:100FDE009F6F150E9E6FA2EF07F09F5109E1480E0D
:100FEE009E5DD8A0FDEF07F0FFEF07F0A2EF07F030
:100FFE00000E9F6F470E9E6FA2EF07F096EF00F068
:10100E0044504510D8B40EEF08F010EF08F019EF69
:10101E0008F044504510D8A417EF08F019EF08F067
:10102E001EEF08F0425068EC0BF06BEF08F020EE6C
:10103E000AF04450D9264550DA22DE50DE10D8B4DC
:10104E002BEF08F02DEF08F048EF08F020EE0AF035
:10105E004450D9264550DA2210EE03F04450E126D2
:10106E004550E222DE50E65CE650800A4A6EDE50C3
:10107E00800A4A58D8B046EF08F048EF08F06BEFF8
:10108E0008F020EE03F04450D9264550DA22DECF88
:10109E0046F0DDCF47F044C0D9FF45C0DAFFDECFC2
:1010AE0048F0DDCF49F046504824D96E47504920CC
:1010BE00DA6E42C0DFFF20EE03F04450D9264550D1
:1010CE00DA22DE2A000EDD2212004D50D96EDA6AC7
:1010DE00DFCFF6FF0F0EF76E0800F550250AD8A4E5
:1010EE007BEF08F07DEF08F0B9EF08F04D50D96EA8
:1010FE00DA6ADF2A000E2A6E000E296E29C02DF044
:10110E002B682C684D50D96EDA6ADFCFF6FF0F0EC2
:10111E00F76E0800F550630AD8A498EF08F09AEF1E
:10112E0008F0B3EF08F04D50D96EDA6ADF2A4E5050
:10113E00D96EDA6ADF50DF2ADF2AD96EDA6ADF501B
:10114E004F6E4FC042F0436A4BC044F04CC045F066
:10115E0007EC08F0CCEF08F04D50D96EDA6ADF2AB2
:10116E00CCEF08F04D50D96EDA6ADFCFF6FF0F0ED6
:10117E00F76E0800F550426E436A4BC044F04CC007
:10118E0045F007EC08F0B3EF08F012003150010FF4
:10119E00D96EDA6ADF6AA6A4D7EF08F0D9EF08F0A5
:1011AE00ECEF08F03150010FD96EDA6ADF8202D807
:1011BE00ECEF08F005000001FA6E8C51FD6E8D51BA
:1011CE00FE6EF850FF6EFA501200A6A2F1EF08F074
:1011DE00F3EF08F006EF09F03150010FD96EDA6A1D
:1011EE00DF8402D806EF09F005000001FA6E8A517D
:1011FE00FD6E8B51FE6EF850FF6EFA50120031509C
:10120E00010FD96EDA6ADF50D8B410EF09F012EF81
:10121E0009F022EF09F002D820EF09F005000001D5
:10122E00FA6E8851FD6E8951FE6EF850FF6EFA50BF
:10123E00120024EF09F005EC0BF012003850110FDC
:10124E00D96EDA6ADF6AABA42FEF09F031EF09F03D
:10125E0044EF09F03850110FD96EDA6ADF8202D8E6
:10126E0044EF09F005000001FA6E9651FD6E97519C
:10127E00FE6EF850FF6EFA501200ABA249EF09F065
:10128E004BEF09F05EEF09F03850110FD96EDA6AA4
:10129E00DF8402D85EEF09F005000001FA6E94516A
:1012AE00FD6E9551FE6EF850FF6EFA5012003850DA
:1012BE00110FD96EDA6ADF50D8B468EF09F06AEF11
:1012CE0009F07AEF09F002D878EF09F00500000175
:1012DE00FA6E9251FD6E9351FE6EF850FF6EFA50FB
:1012EE0012007CEF09F018EC0BF01200A39A9A0E84
:1012FE00406E110E416E72EC0BF0A398100E406E04
:10130E00150E416E6DEC0BF0080EB96E900EA66EBA
:10131E00260EBA6E0C0E7B6E000E7C6E5A0E406E52
:10132E00170E416E7CEC0BF03E0E406E170E416EAA
:10133E0077EC0BF0440E406E170E416E81EC0BF005
:10134E00000E2E6E000E346E000E336E080E326ED0
:10135E00000E316E000E306E000E2F6EA38A12003C
:10136E009D9A4A0E406E120E416E8BEC0BF09D98BC
:10137E004C0E406E150E416E86EC0BF0080EA76EED
:10138E00900EAB6E240EAC6E0C0EAF6E000E7D6E1C
:10139E005C0E406E170E416E95EC0BF04A0E406ED1
:1013AE00170E416E90EC0BF0500E406E170E416E04
:1013BE009AEC0BF0000E356E000E3B6E000E3A6E80
:1013CE00080E396E000E386E000E376E000E366E39
:1013DE009D8A1200406E3250D8B4F8EF09F0FAEF41
:1013EE0009F0F2EF09F0A3B8FFEF09F001EF0AF0F0
:1013FE0005EF0AF040C079FF18EF0AF0A3983450B9
:10140E00090FD96EDA6A40C0DFFF342A070E346442
:10141E0013EF0AF015EF0AF017EF0AF0000E346E14
:10142E003206A3881200406E3950D8B421EF0AF06C
:10143E0023EF0AF01BEF0AF09DB828EF0AF02AEF0F
:10144E000AF02EEF0AF040C0ADFF41EF0AF09D9872
:10145E003B50210FD96EDA6A40C0DFFF3B2A070EE0
:10146E003B643CEF0AF03EEF0AF040EF0AF0000E4C
:10147E003B6E39069D8812003650D8B449EF0AF0FB
:10148E004BEF0AF043EF0AF03750110FD96EDA6ABC
:10149E00DF50356E3750190FD96EDA6ADF50406E55
:1014AE00372A070E37645EEF0AF060EF0AF062EF3C
:1014BE000AF0000E376E9D9A36069D8A4050120035
:1014CE0052C054F075EF0AF050C04BF051C04CF0C2
:1014DE00540E4D6E53C04EF06CEC08F054C0F6FF37
:1014EE000F0EF76E0800F5500009D8A481EF0AF030
:1014FE0083EF0AF06BEF0AF0000E516E000E506E85
:10150E001200080E32608EEF0AF090EF0AF0A4EF90
:10151E000AF03350090FD96EDA6ADF50796E332A2A
:10152E00070E33649DEF0AF09FEF0AF0A1EF0AF069
:10153E00000E336E322AA5EF0AF0A3981200080EA1
:10154E003960ACEF0AF0AEEF0AF0C2EF0AF03A5093
:10155E00210FD96EDA6ADF50AD6E3A2A070E3A6461
:10156E00BBEF0AF0BDEF0AF0BFEF0AF0000E3A6EC5
:10157E00392AC3EF0AF09D98120040C042F041C0D4
:10158E0043F0D89043324232D890433242324250E6
:10159E000F01516F40C042F0030E4216423AF00E58
:1015AE0042165051CF0B4210506F1200000E896E32
:1015BE00000E8A6E000E8B6EEF0E926EBF0E936E45
:1015CE00BB0E946E1F0E0F015D6F070E5C6F000E4B
:1015DE005B6FF18E120000EE60F0280EEE6AE806E8
:1015EE00FDE100EE01F03B0EEE6AE806FDE15A90D9
:1015FE005A92000EF86E000197EF07F03150800FEF
:10160E00D96EDA6A7ACFDFFF312A070E316412EF14
:10161E000BF014EF0BF016EF0BF0000E316E2F2ABD
:10162E0012003850190FD96EDA6AAECFDFFF382AA2
:10163E00070E386425EF0BF027EF0BF029EF0BF0B8
:10164E00000E386E362A1200ABEC0BF0DDEC0AF011
:10165E0050EC0BF047EC0BF059EC0BF0B7EC09F03B
:10166E007DEC09F01200560E586E000E506E000EF4
:10167E00516E55C052F0580E536E67EC0AF01200C0
:10168E002C0E0F01506F0B0E516F000E526F999270
:10169E001200200ED36E000ED26E000E9B6E000E48
:1016AE009A6E12009B0ECB6E000ECC6E9E92060EA4
:1016BE00CA6E1200FE0EF1EC09F0510EF1EC09F0BB
:1016CE001200416E41501AEC0AF0120040C090F028
:1016DE0041C091F0120040C08EF041C08FF0120058
:1016EE0040C08AF041C08BF0120040C08CF041C067
:1016FE008DF0120040C088F041C089F0120040C049
:10170E009AF041C09BF0120040C098F041C099F091
:10171E00120040C094F041C095F0120040C096F007
:10172E0041C097F0120040C092F041C093F01200F9
:10173E00A698A688120005EC0BF01200AB98AB88A9
:10174E00120018EC0BF01200D09E120012001200C4
:020000040030CA
:0E00000015087F50FF8991FF0FC00FE00F40E1
:00000001FF
