:040000006CEF00F0B1
:100008005582FACF07F0FBCF08F0D9CF09F0DACF45
:100018000AF0F2AC12EF00F014EF00F062EF00F01B
:100028009DA819EF00F01BEF00F032EF00F09EA83A
:1000380020EF00F022EF00F032EF00F002D830EFAE
:1000480000F005000001FA6EF951FD6EFA51FE6EDE
:10005800F850FF6EFA50120062EF00F09DAA37EFD9
:1000680000F039EF00F050EF00F09EAA3EEF00F0EC
:1000780040EF00F050EF00F002D84EEF00F005001E
:100088000001FA6EF751FD6EF851FE6EF850FF6EE2
:10009800FA50120062EF00F0A3A455EF00F057EFFA
:1000A80000F062EF00F0A4A45CEF00F05EEF00F057
:1000B80062EF00F0E5EC1CF062EF00F00AC0DAFF36
:1000C80009C0D9FF08C0FBFF07C0FAFF559211000D
:0400D800CCEF1CF05D
:100F00000025302E316600696E66006E616E002528
:030F100075000069
:100F1400000E0001946F6EC095F06FC096F070C023
:100F240097F071C098F098BF9CEF07F09AEF07F024
:100F3400B0EF07F0010E946F95C00BF096C00CF063
:100F440097C00DF098C00EF094EC1CF00BC095F017
:100F54000CC096F00DC097F00EC098F0000E000182
:100F64009A6F000E996FE6C088F0E7C089F094513B
:100F7400D8B4BFEF07F0C1EF07F0D5EF07F09451F5
:100F8400D8A4C7EF07F0C9EF07F0CFEF07F0000EC2
:100F94007A6F2B0E796FD3EF07F0000E7A6F2D0E58
:100FA400796F79C094F095C00BF096C00CF097C09F
:100FB4000DF098C00EF0B3EC18F00B040C10D8A48C
:100FC400E6EF07F0E8EF07F019EF08F0000194519D
:100FD400D8B4EFEF07F0F1EF07F0FAEF07F094C0A1
:100FE40000F18807D8A08907000E9A6F010E996F47
:100FF400000E99250B6E010E9A210C6E070E0D6ED4
:1010040077EC1CF00001FD0E8827FF0E89236CC0CD
:101014001DF06DC01EF0000E1F6E010E206E88C004
:1010240021F089C022F00BEC1BF0B6EF0CF095C058
:101034000BF096C00CF097C00DF098C00EF0B3EC16
:1010440018F00B500C10D8A42AEF08F02CEF08F07D
:101054004AEF08F000019451D8B433EF08F035EFAB
:1010640008F03EEF08F094C000F18807D8A0890783
:10107400000E9A6F010E996F000E99250B6E010EEA
:101084009A210C6E0B0E0D6E77EC1CF004EF08F039
:10109400000E00019B6F000E9C6F800E9D6F3F0E33
:1010A4009E6F000E836F000E826F95C00BF096C08A
:1010B4000CF097C00DF098C00EF0000E0F6E000EED
:1010C400106E000E116E000E126EEFEC19F0D8B017
:1010D4006EEF08F070EF08F04FEF09F07DEF08F0C5
:1010E40084C09BF085C09CF086C09DF087C09EF0B4
:1010F4000001824B832B9BC024F09CC025F09DC033
:1011040026F09EC027F0000E286E000E296E200ED9
:101114002A6E410E2B6E18EC0FF024C084F025C00B
:1011240085F026C086F027C087F000018451955DC4
:101134000B6E855196590C6E865197590D6E8751D9
:1011440098590E6E74EC1BF00EBEB4EF08F00E50FE
:101154000D100C1009E1020E0B5CD8A0B4EF08F0DE
:10116400B6EF08F072EF08F084C03DF085C03EF0A1
:1011740086C03FF087C040F095C041F096C042F071
:1011840097C043F098C044F031EC18F0D8A0CDEFEC
:1011940008F0CFEF08F072EF08F000019B51955D65
:1011A4000B6E9C5196590C6E9D5197590D6E9E5124
:1011B40098590E6E74EC1BF00EBEEEEF08F00E5054
:1011C4000D100C1007E1020E0B5CD8B0ECEF08F028
:1011D400EEEF08F036EF09F09BC095F09CC096F056
:1011E4009DC097F09EC098F04FEF09F09BC00BF0A4
:1011F4009CC00CF09DC00DF09EC00EF0000E0F6E52
:10120400000E106E200E116E410E126E2DEC11F0B8
:101214000BC09BF00CC09CF00DC09DF00EC09EF066
:1012240000018207D8A083079B51955D0B6E9C51EA
:1012340096590C6E9D5197590D6E9E5198590E6E8C
:1012440074EC1BF00EBE34EF09F00E500D100C10B0
:1012540007E1020E0B5CD8B032EF09F034EF09F06D
:1012640036EF09F0EEEF08F095C03DF096C03EF081
:1012740097C03FF098C040F09BC041F09CC042F042
:101284009DC043F09EC044F031EC18F0D8A04DEF5F
:1012940009F04FEF09F0F8EF08F072C07CF07CC061
:1012A4007DF00001E9BF59EF09F05BEF09F061EF50
:1012B40009F0E8C075F0E9C076F065EF09F0000EBA
:1012C400766F060E756F75C080F076C081F0804B26
:1012D400812B660E7D19D8A472EF09F074EF09F022
:1012E40094EF09F083BF7BEF09F079EF09F087EF02
:1012F40009F0000E9B6F000E9C6F800E9D6F3F0ED9
:101304009E6F000E836F000E826F670E7C19D8B437
:101314008EEF09F090EF09F094EF09F082518027E5
:1013240083518123000E936F000E926F95C08AF053
:1013340096C08BF097C08CF098C08DF09BC084F061
:101344009CC085F09DC086F09EC087F025EF0AF012
:101354008AC00BF08BC00CF08CC00DF08DC00EF069
:101364009BC00FF09CC010F09DC011F09EC012F005
:101374002DEC11F00BC024F00CC025F00DC026F0AC
:101384000EC027F07EEC14F024C08EF025C08FF040
:1013940026C090F027C091F08EC00BF08FC00CF0E7
:1013A40090C00DF091C00EF0AEEC17F00BC07EF0C3
:1013B4000CC07FF08AC064F08BC065F08CC066F00E
:1013C4008DC067F08EC028F08FC029F090C02AF03D
:1013D40091C02BF09BC024F09CC025F09DC026F04A
:1013E4009EC027F018EC0FF024C068F025C069F007
:1013F40026C06AF027C06BF0F0EC1BF064C08AF0E2
:1014040065C08BF066C08CF067C08DF09BC00BF09C
:101414009CC00CF09DC00DF09EC00EF0000E0F6E2F
:10142400000E106E200E116E410E126E2DEC11F096
:101434000BC09BF00CC09CF00DC09DF00EC09EF044
:101444000001924B932B8051925D9351800A496E17
:101454008151800A4958D8A032EF0AF034EF0AF0DB
:10146400AAEF09F09BC024F09CC025F09DC026F093
:101474009EC027F0000E286E000E296EA00E2A6E64
:10148400400E2B6E18EC0FF024C08EF025C08FF0A8
:1014940026C090F027C091F08AC03DF08BC03EF08A
:1014A4008CC03FF08DC040F08EC041F08FC042F040
:1014B40090C043F091C044F031EC18F0D8B065EF1F
:1014C4000AF067EF0AF072EF0AF0000E00018E6F67
:1014D400000E8F6F000E906F000E916F9BEF0AF05D
:1014E4008AC00BF08BC00CF08CC00DF08DC00EF0D8
:1014F4008EC00FF08FC010F090C011F091C012F0A8
:10150400EFEC19F0D8A089EF0AF08BEF0AF09BEF0B
:101514000AF000017EB191EF0AF093EF0AF09BEF1D
:101524000AF0000E8E6F000E8F6F000E906F000E8B
:10153400916F95C03DF096C03EF097C03FF098C0C3
:1015440040F08EC041F08FC042F090C043F091C093
:1015540044F0B7EC0CF03DC08AF03EC08BF03FC0C5
:101564008CF040C08DF08AC03DF08BC03EF08CC042
:101574003FF08DC040F0000E286E000E296E200E44
:101584002A6E410E2B6E84C024F085C025F086C0DF
:1015940026F087C027F018EC0FF024C041F025C0D6
:1015A40042F026C043F027C044F031EC18F0D8A034
:1015B400DEEF0AF0E0EF0AF009EF0BF00001824BD6
:1015C400832B84C024F085C025F086C026F087C014
:1015D40027F0000E286E000E296E200E2A6E410E92
:1015E4002B6E18EC0FF024C084F025C085F026C0C3
:1015F40086F027C087F0660E00017D19D8A405EF98
:101604000BF007EF0BF009EF0BF0804B812B84C03C
:101614009BF085C09CF086C09DF087C09EF082C080
:1016240073F083C074F0000E00017B6F000E786FBE
:10163400000E776F000E936F000E926F07EF0CF0A1
:101644008AC00BF08BC00CF08CC00DF08DC00EF076
:101654009BC00FF09CC010F09DC011F09EC012F012
:101664002DEC11F00BC024F00CC025F00DC026F0B9
:101674000EC027F07EEC14F024C08EF025C08FF04D
:1016840026C090F027C091F08EC00BF08FC00CF0F4
:1016940090C00DF091C00EF0AEEC17F00CBE5EEFF2
:1016A4000BF00C5007E10A0E0B5CD8B05CEF0BF0AA
:1016B4005EEF0BF06EEF0BF08EC00BF08FC00CF0F2
:1016C40090C00DF091C00EF0AEEC17F00BC07EF0A0
:1016D4000CC07FF073EF0BF0000E00017F6F090E5A
:1016E4007E6F00017B51D8A47AEF0BF07CEF0BF0F6
:1016F400A4EF0BF074BF83EF0BF081EF0BF0A4EFBA
:101704000BF0000E9925D96E010E9A21DA6E2E0E79
:10171400DF6E994B9A2B8807D8A08907010E7B6F3F
:10172400A4EF0BF0000E9925D96E010E9A21DA6E02
:10173400300EDF6E994B9A2B8807D8A0890777075C
:10174400D8A0780777517811D8A4ABEF0BF0ADEFA0
:101754000BF094EF0BF0000E9925D96E010E9A212F
:10176400DA6E7E51300FDF6E994B9A2B8807D8A022
:1017740089078AC064F08BC065F08CC066F08DC0A8
:1017840067F08EC028F08FC029F090C02AF091C075
:101794002BF09BC024F09CC025F09DC026F09EC079
:1017A40027F018EC0FF024C068F025C069F026C0BB
:1017B4006AF027C06BF0F0EC1BF064C08AF065C0DF
:1017C4008BF066C08CF067C08DF09BC00BF09CC0A2
:1017D4000CF09DC00DF09EC00EF0000E0F6E000EBA
:1017E400106E200E116E410E126E2DEC11F00BC016
:1017F4009BF00CC09CF00DC09DF00EC09EF000014B
:101804007307D8A07407924B932B8051925D935128
:10181400800A496E8151800A4958D8B014EF0CF0FF
:1018240016EF0CF024EF0CF09ABF22EF0CF09A5153
:1018340009E14B0E995DD8A022EF0CF024EF0CF0D7
:1018440022EF0BF0000E936F4F0E926F000E922555
:10185400D96E010E9321DA6EDF6A000E496E010E15
:101864004A6E9951495E9A514A5A925149240B6ED3
:1018740093514A200C6E000E0D6E010E0E6E99C02F
:101884000FF09AC010F0C8EC1BF000019951925D62
:10189400996F9A5193599A6F9451D8A454EF0CF0BC
:1018A40057EF0CF0010E58EF0CF0000E926F936B93
:1018B400EEA35FEF0CF061EF0CF08FEF0CF071EF23
:1018C4000CF09907D8A09A07000E9925D96E010E3D
:1018D4009A21DA6E300EDF6E8807D8A08907885106
:1018E400925D9351800A496E8951800A4958D8B053
:1018F4007EEF0CF080EF0CF08FEF0CF09951925DBD
:101904009351800A496E9A51800A4958D8A08DEFA4
:101914000CF08FEF0CF063EF0CF09451D8B495EF0A
:101924000CF097EF0CF0A2EF0CF09907D8A09A07EF
:10193400000E9925D96E010E9A21DA6E94C0DFFF4C
:101944009251885F9351895B6CC01DF06DC01EF08D
:10195400000E99251F6E010E9A21206E88C021F079
:1019640089C022F00BEC1BF012004050800B0001E8
:10197400606F40504024626F3FAEC3EF0CF0C5EF80
:101984000CF0C6EF0CF062816251D8B4CCEF0CF0CD
:10199400CEEF0CF0E3EF0CF06229D8A4D4EF0CF0F6
:1019A400D6EF0CF0DEEF0CF0000E3D6E000E3E6E36
:1019B400000E3F6E000E406E3F8E000E406EEBEF49
:1019C4000CF0000E3D6E000E3E6E000E3F6E000EDB
:1019D400406E4450800B616F60516119D8B4F5EFCB
:1019E4000CF0F7EF0CF0F8EF0CF0608D4450442449
:1019F400616F43AE00EF0DF002EF0DF003EF0DF059
:101A040061816151D8B409EF0DF00BEF0DF020EFB7
:101A14000DF06129D8A411EF0DF013EF0DF01BEFB9
:101A24000DF0000E416E000E426E000E436E000E6D
:101A3400446E438E000E446E28EF0DF0000E416E8E
:101A4400000E426E000E436E000E446E6251615DE4
:101A5400D8B02FEF0DF031EF0DF058EF0DF060AD71
:101A640036EF0DF038EF0DF03AEF0DF0800E601BFD
:101A740062C063F061C062F063C061F03DC063F0B6
:101A840041C03DF063C041F03EC063F042C03EF04F
:101A940063C042F03FC063F043C03FF063C043F013
:101AA40040C063F044C040F063C044F0000E636F74
:101AB400625161C045F0466A455E000E465A46BE14
:101AC4006DEF0DF0465009E11A0E455CD8A06DEF9C
:101AD4000DF06FEF0DF0A6EF0DF03D503E103F10EE
:101AE4004010D8A478EF0DF07BEF0DF0010E7CEFE1
:101AF4000DF0000E636F000E3D6E000E3E6E000E84
:101B04003F6E000E406E61C062F0AFEF0DF063A156
:101B14008EEF0DF090EF0DF096EF0DF0D89063314D
:101B24000109636F98EF0DF0D89063333DA09DEFEA
:101B34000DF09FEF0DF0A0EF0DF0638F40344032B5
:101B44003F323E323D32622B6151625DD8A0ADEF2F
:101B54000DF0AFEF0DF089EF0DF060BDB4EF0DF0B7
:101B6400B6EF0DF0F6EF0DF06251D8A4BCEF0DF016
:101B7400BEEF0DF0C8EF0DF0000E3D6E000E3E6E90
:101B8400000E3F6E000E406E17EF0FF041503D26E1
:101B940042503E2243503F224450402240A0D5EFC1
:101BA4000DF0D7EF0DF083EF0EF063A1DCEF0DF035
:101BB400DEEF0DF0E4EF0DF0D89063310109636FAF
:101BC400E6EF0DF0D89063333DA0EBEF0DF0EDEFB1
:101BD4000DF0EEEF0DF0638F403440323F323E3271
:101BE4003D32622B83EF0EF041503D5C42503E5833
:101BF40043503F584050800A456E4450800A45582F
:101C0400D8B007EF0EF009EF0EF034EF0EF03D50B0
:101C1400415C456E3E504258466E3F504358476EB5
:101C240040504458486EFF0E45243D6EFF0E46203A
:101C34003E6EFF0E47203F6EFF0E4820406E800E22
:101C4400601B636D6351D8A42AEF0EF02CEF0EF0E5
:101C54003CEF0EF0010E3D26000E3E223F224022B4
:101C64003CEF0EF041503D5E42503E5A43503F5AC5
:101C74004450405A3D503E103F104010D8A445EF08
:101C84000EF047EF0EF07CEF0EF06351D8A44DEF49
:101C94000EF04FEF0EF07CEF0EF0000E3D6E000ED6
:101CA4003E6E000E3F6E000E406E17EF0FF0D890A0
:101CB4003D363E363F36403663AF63EF0EF065EF98
:101CC4000EF066EF0EF03D8063A16BEF0EF06DEF4A
:101CD4000EF071EF0EF0D880633773EF0EF0D890EA
:101CE40063376251D8B479EF0EF07BEF0EF07CEFDE
:101CF4000EF062073FAE81EF0EF083EF0EF059EF66
:101D04000EF0000E616F63AF8AEF0EF08CEF0EF0F1
:101D1400A4EF0EF063C045F07F0E4516D8B495EFDE
:101D24000EF097EF0EF09BEF0EF0010E616FA4EF33
:101D34000EF03DA0A0EF0EF0A2EF0EF0A4EF0EF017
:101D440097EF0EF06151D8B4AAEF0EF0ACEF0EF09D
:101D5400D7EF0EF0010E3D26000E3E223F22402218
:101D640040A0B7EF0EF0B9EF0EF0D7EF0EF03DC084
:101D740045F03EC046F03FC047F040C048F048340C
:101D8400483247324632453245C03DF046C03EF007
:101D940047C03FF048C040F06229D8B4D4EF0EF0F9
:101DA400D6EF0EF0D7EF0EF0622B6229D8B4DDEF38
:101DB4000EF0DFEF0EF0E7EF0EF06251D8A4E5EF7E
:101DC4000EF0E7EF0EF0F9EF0EF0000E3D6E000E90
:101DD4003E6E000E3F6E000E406E6251D8A4F5EFC9
:101DE4000EF0F7EF0EF0F9EF0EF0000E606F62A147
:101DF400FEEF0EF000EF0FF003EF0FF03F8E04EF55
:101E04000FF03F9ED8906231406E60AF0CEF0FF040
:101E14000EEF0FF00FEF0FF0408E3DC03DF03EC0CF
:101E24003EF03FC03FF040C040F012002750800B0E
:101E3400306E27502724366E26AE23EF0FF025EFA1
:101E44000FF026EF0FF036803650D8B42CEF0FF099
:101E54002EEF0FF041EF0FF03628D8A434EF0FF037
:101E640036EF0FF03EEF0FF0000E246E000E256EDD
:101E7400000E266E000E276E268E49EF0FF0000E20
:101E8400246E000E256E000E266E000E276E2B505B
:101E9400800B301A2B502B24316E2AAE54EF0FF0E6
:101EA40056EF0FF057EF0FF031803150D8B45DEF9B
:101EB4000FF05FEF0FF072EF0FF03128D8A465EF49
:101EC4000FF067EF0FF06FEF0FF0000E286E000EAB
:101ED400296E000E2A6E000E2B6E2A8E7AEF0FF0FA
:101EE400000E286E000E296E000E2A6E000E2B6E58
:101EF4003150D8B480EF0FF082EF0FF08AEF0FF07B
:101F04003650D8A488EF0FF08AEF0FF094EF0FF05B
:101F1400000E246E000E256E000E266E000E276E37
:101F24002CEF11F02A502402F3CF3BF0F4CF3CF015
:101F34003B50326E336A346A356A3C50376E386AC5
:101F4400396A3A6A29502502F3CF3BF0F4CF3CF0CA
:101F54003B503226000E3322342235223C503726A1
:101F6400000E382239223A2228502602F3CF3BF0C1
:101F7400F4CF3CF03B503226000E3322342235227B
:101F84003C503726000E382239223A2234C035F02C
:101F940033C034F032C033F0326A28502502F3CF14
:101FA4003BF0F4CF3CF03B5032263C503322000E41
:101FB4003422000E352229502402F3CF3BF0F4CF13
:101FC4003CF03B5032263C503322000E3422000EAB
:101FD400352234C035F033C034F032C033F0326AC5
:101FE40028502402F3CF3BF0F4CF3CF03B50322690
:101FF4003C503322000E3422000E35222A50250292
:10200400F3CF3BF0F4CF3CF03B5037263C50382222
:10201400000E3922000E3A2229502602F3CF3BF05B
:10202400F4CF3CF03B5037263C503822000E392286
:10203400000E3A222A502602F3CF3BF0F4CF3CF0B4
:102044003B502C6E3C502D6E2E6A2F6A2EC02FF002
:102054002DC02EF02CC02DF02C6A2C5037262D507C
:1020640038222E5039222F503A2232C02CF033C05D
:102074002DF034C02EF035C02FF0190E47EF10F0BC
:10208400D8902F322E322D322C32E82E42EF10F01F
:102094002C5037262D5038222E5039222F503A22D8
:1020A40034C035F033C034F032C033F0326A3150CA
:1020B40036C02CF02D6A2C26000E2D22820E2C24E4
:1020C4003B6EFF0E2D203C6E7DEF10F0D89037361E
:1020D400383639363A3635AE72EF10F074EF10F008
:1020E40075EF10F03780D8903236333634363536C3
:1020F4003B06D8A03C0639AE82EF10F084EF10F016
:1021040068EF10F0000E316E35AE8BEF10F08DEFEE
:1021140010F0B1EF10F0FF0E32142C6EFF0E3314DA
:102124002D6EFF0E34142E6E7F0E35142F6E2C5030
:102134002D102E102F10D8B4A2EF10F0A4EF10F031
:10214400A8EF10F0010E316EB1EF10F037A0ADEF33
:1021540010F0AFEF10F0B1EF10F0A4EF10F0315029
:10216400D8B4B7EF10F0B9EF10F0DDEF10F0010EB6
:102174003726000E382239223A223AA0C4EF10F052
:10218400C6EF10F0DDEF10F037C02CF038C02DF0A2
:1021940039C02EF03AC02FF02F342F322E322D3288
:1021A4002C322CC037F02DC038F02EC039F02FC09F
:1021B4003AF03B4A3C2A3CBEE8EF10F03C5008E1C0
:1021C4003B28D8A0E8EF10F0EAEF10F0F4EF10F09D
:1021D400000E376E000E386E800E396E7F0E3A6E2A
:1021E40022EF11F03CBE01EF11F03C5006E13B043C
:1021F400D8B0FFEF10F001EF11F00DEF11F0000E69
:10220400376E000E386E000E396E000E3A6E000EF8
:10221400306E22EF11F03BC036F0FF0E3716FF0E82
:1022240038167F0E3916000E3A1636A01CEF11F040
:102234001EEF11F01FEF11F0398ED89036303A6E40
:1022440030503A1237C024F038C025F039C026F097
:102254003AC027F012000E50800B1B6E0E500E2455
:10226400226E0DAE38EF11F03AEF11F03BEF11F0A2
:1022740022802250D8B441EF11F043EF11F058EF0F
:1022840011F02228D8A449EF11F04BEF11F053EFCD
:1022940011F0000E0B6E000E0C6E000E0D6E000E93
:1022A4000E6E0D8E000E0E6E60EF11F0000E0B6EB2
:1022B400000E0C6E000E0D6E000E0E6E1250800B92
:1022C4001B1A12501224236E11AE6BEF11F06DEF36
:1022D40011F06EEF11F023802350D8B474EF11F095
:1022E40076EF11F08BEF11F02328D8A47CEF11F0D6
:1022F4007EEF11F086EF11F0000E0F6E000E106EDF
:10230400000E116E000E126E118E000E126E93EFFF
:1023140011F0000E0F6E000E106E000E116E000E06
:10232400126E0F50101011101210D8A49CEF11F05F
:102334009EEF11F0B6EF11F0000E0B6E000E0C6E56
:10234400000E0D6E000E0E6E800E0D127F0E0E121C
:102354001B500E120BC00BF00CC00CF00DC00DF096
:102364000EC00EF0F9EF12F02250D8A4BCEF11F019
:10237400BEEF11F0C8EF11F0000E0B6E000E0C6EE4
:10238400000E0D6E000E0E6EF9EF12F0235022C0F7
:1023940013F0146A135E000E145A7F0E13241C6E7D
:1023A400000E14201D6E0BC017F00CC018F00DC0E9
:1023B40019F00EC01AF0000E0B6E000E0C6E000E1B
:1023C4000D6E000E0E6E000E1E6E000E1F6E000EC1
:1023D400206E000E216E000E236E29EF12F02350A2
:1023E400D8B4F7EF11F0F9EF11F010EF12F0D89024
:1023F4001736183619361A36D8900B360C360D3671
:102404000E3621AE08EF12F00AEF12F00BEF12F0C5
:102414000B80D8901E361F36203621360F50175C9D
:10242400105018581150195812501A58D8A01DEFAE
:1024340012F01FEF12F028EF12F0218C0F50175EEC
:102444001050185A1150195A12501A5A232A190E98
:1024540023642FEF12F031EF12F0F1EF11F0175067
:10246400181019101A10D8B43AEF12F03CEF12F009
:1024740054EF12F01E8054EF12F0D8900B360C3645
:102484000D360E3621AE49EF12F04BEF12F04CEF41
:1024940012F00B80D8901E361F36203621361C06CB
:1024A400D8A01D060DAE59EF12F05BEF12F03FEF0E
:1024B40012F0000E236E21AE62EF12F064EF12F000
:1024C40088EF12F0FF0E1E14136EFF0E1F14146E0D
:1024D400FF0E2014156E7F0E2114166E1350141067
:1024E40015101610D8B479EF12F07BEF12F07FEFCD
:1024F40012F0010E236E88EF12F00BA084EF12F09D
:1025040086EF12F088EF12F07BEF12F02350D8B46C
:102514008EEF12F090EF12F0B4EF12F0010E0B26D2
:10252400000E0C220D220E220EA09BEF12F09DEF46
:1025340012F0B4EF12F00BC013F00CC014F00DC085
:1025440015F00EC016F0163416321532143213324A
:1025540013C00BF014C00CF015C00DF016C00EF033
:102564001C4A1D2A1DBEBFEF12F01D5008E11C2895
:10257400D8A0BFEF12F0C1EF12F0CCEF12F0000EB2
:102584001D6E1C68000E0B6E000E0C6E000E0D6EA0
:10259400000E0E6E1DBED9EF12F01D5006E11C0494
:1025A400D8B0D7EF12F0D9EF12F0E7EF12F0000E27
:1025B4001D6E000E1C6E000E0B6E000E0C6E000ED7
:1025C4000D6E000E0E6E000E1B6E1CC022F022A0BB
:1025D400EEEF12F0F0EF12F0F3EF12F00D8EF4EFD5
:1025E40012F00D9ED89022300E6EAAEF11F0120058
:1025F4000001A151D96EDA6ADFCFF6FF0F0EF76E34
:102604000800F550250AD8A40AEF13F00CEF13F0D4
:102614006AEF14F0A151D96EDA6ADF2A000EE76F6F
:10262400000EE66FE6C0EEF0E869E969000EA56FFA
:1026340040EF13F0EE83A151D96EDA6ADF2A40EF3E
:1026440013F0010EA56F40EF13F0A151D96EDA6AB1
:10265400DFCFF6FF0F0EF76E0800F550A36FA46BE3
:10266400A451000AD8B439EF13F023EF13F0A351A7
:10267400300AD8B41CEF13F023EF13F0A551D8B4EB
:1026840046EF13F048EF13F027EF13F0A151D96E82
:10269400DA6ADFCFF6FF0F0EF76E0800F5502E0A48
:1026A400D8A457EF13F059EF13F067EF13F0A151CB
:1026B400D96EDA6ADF2AA1C011F0A2C012F044EC8C
:1026C4001AF011C0E8F012C0E9F00001A151D96E6E
:1026D400DA6ADF50AB6FABC0F6FF0F0EF76E08007F
:1026E400F550750AD8A479EF13F07BEF13F0B0EF2F
:1026F40013F0A251D96EDA6A020EDF26DF5CD96EBE
:10270400DA6ADECFA6F0DECFA7F0A151D96EDA6A7D
:10271400AB29DF6E9AEF13F09FC026F0A0C027F01C
:10272400A6C028F0A7C029F018EC17F07DEF14F02C
:10273400ABC0F6FF0F0EF76E0800F550A36FA46B45
:10274400A451000AD8B4A9EF13F0B0EF13F0A351C9
:10275400750AD8B48EEF13F0B0EF13F0A151D96E0F
:10276400DA6ADF50AB6FABC0F6FF0F0EF76E0800EE
:10277400F5CFAAF0C9EF13F0AB2BE2EF13F06C0E18
:10278400AA6FE2EF13F0000EAA6FE2EF13F0AA5162
:10279400A36FA46BA451000AD8B4D3EF13F0C5EF10
:1027A40013F0A3514C0AD8B4BEEF13F02A0AD8B4DC
:1027B400C1EF13F00A0AD8B4BEEF13F0C5EF13F05B
:1027C400ABC0F6FF0F0EF76E0800F550660AD8A4EA
:1027D400EEEF13F0F0EF13F063EF14F01AEF14F0D0
:1027E400A251D96EDA6ADFCFA3F0040EDF26A3511B
:1027F400D96EDA6ADECFA6F0DECFA7F0DECFA8F07E
:10280400DECFA9F02FEF14F0A251D96EDA6ADFCF30
:10281400A3F0040EDF26A351D96EDA6ADECFA6F048
:10282400DECFA7F0DECFA8F0DECFA9F02FEF14F0B3
:10283400AA51A36FA46BA451000AD8B424EF14F0D6
:102844002FEF14F0A3514C0AD8B406EF14F0200A69
:10285400D8B4F2EF13F02FEF14F0A151D96EDA6A65
:10286400AB29DF6E4DEF14F09FC06CF0A0C06DF08B
:10287400A6C06EF0A7C06FF0A8C070F0A9C071F038
:10288400ABC0F6FF0F0EF76E0800F5CF72F08AECBE
:1028940007F07DEF14F0ABC0F6FF0F0EF76E0800E3
:1028A400F550A36FA46BA451000AD8B45CEF14F0E4
:1028B40063EF14F0A351660AD8B436EF14F063EF53
:1028C40014F00001A151D96EDA6ADF2A7DEF14F009
:1028D400A151D96EDA6ADFCFF6FF0F0EF76E08004A
:1028E400F5500D6E0E6A9FC00FF0A0C010F032ECD0
:1028F40019F063EF14F01200DEC034F0DFC035F0DD
:10290400E0C036F0E1C037F024C034F025C035F023
:1029140026C036F027C037F0810E286EFF0E296ED0
:1029240034C02AF035C02BF036C02CF037C02DF05F
:10293400180EA2EF14F0D8902D322C322B322A32FA
:10294400E82E9DEF14F02A502824326E000E292020
:10295400336E33BEB7EF14F0335009E1170E325C17
:10296400D8A0B7EF14F0B9EF14F0C3EF14F024C0FB
:1029740024F025C025F026C026F027C027F086EFD6
:1029840015F033BEC8EF14F0CAEF14F03AEF15F0A7
:1029940032C028F0FF0E296EFF0E2A6E7F0E2B6EBA
:1029A400000E2C6E2866D9EF14F0E1EF14F02C34ED
:1029B4002C322B322A322932282ED4EF14F029C09B
:1029C4002EF02AC02FF02BC030F02CC031F02E5046
:1029D4003414286E2F503514296E305036142A6E54
:1029E400315037142B6E285029102A102B10D8A4DC
:1029F400FEEF14F000EF15F002EF15F0B9EF14F04C
:102A040034C028F035C029F036C02AF037C02BF086
:102A1400200E12EF15F0D8902B322A3229322832A8
:102A2400E82E0DEF15F0285029102A102B10D8B4D9
:102A34001EEF15F020EF15F028EF15F02E50342678
:102A44002F50352230503622315037222E1C286E1A
:102A54002F1C296E301C2A6E311C2B6E2850341604
:102A6400295035162A5036162B5037167EEF15F09E
:102A740034C028F035C029F036C02AF037C02BF016
:102A8400200E4AEF15F0D8902B322A322932283200
:102A9400E82E45EF15F0285029102A102B10D8A441
:102AA40056EF15F058EF15F062EF15F0000E346E86
:102AB400000E356E000E366E000E376E7EEF15F08A
:102AC400D8903434286E3534296E36342A6E37342F
:102AD4002B6E285029102A102B10D8B474EF15F03F
:102AE40076EF15F07EEF15F0000E346E000E356EA5
:102AF400800E366EBF0E376E34C024F035C025F01C
:102B040036C026F037C027F01200136E1350D8B425
:102B14008EEF15F090EF15F0B2EF15F00EBE97EFB3
:102B240015F095EF15F0B2EF15F00BC00FF00CC0D7
:102B340010F00DC011F00EC012F00F1E101E111E69
:102B4400121E0F2A000E1022112212220FC015F09D
:102B540010C016F011C017F012C018F0BAEF15F03B
:102B64000BC015F00CC016F00DC017F00EC018F015
:102B74000B500C100D100E10D8A4C3EF15F0C5EFB8
:102B840015F0CFEF15F0000E0B6E000E0C6E000E5C
:102B94000D6E000E0E6E60EF16F0960E146ED9EFE9
:102BA40015F0142AD8901832173216321532000E46
:102BB40015140F6E000E1614106E000E1714116EFD
:102BC400FE0E1814126E0F50101011101210D8A40B
:102BD400EEEF15F0F0EF15F0D3EF15F0FEEF15F072
:102BE400142A010E1526000E162217221822D89038
:102BF4001832173216321532000E15140F6E000EED
:102C04001614106E000E1714116EFF0E1814126EA7
:102C14000F50101011101210D8A413EF16F015EF66
:102C240016F0F2EF15F01DEF16F01406D8901536D5
:102C340016361736183617BE22EF16F024EF16F0A4
:102C44002CEF16F0020E14602AEF16F02CEF16F09B
:102C540017EF16F014B031EF16F033EF16F034EF2F
:102C640016F0179ED890143214C00FF0106A116A2F
:102C7400126A0FC012F0116A106A0F6A0F5015120F
:102C84001050161211501712125018121350D8B4B3
:102C94004EEF16F050EF16F058EF16F00EBE57EF49
:102CA40016F055EF16F058EF16F0188E15C00BF00D
:102CB40016C00CF017C00DF018C00EF012007FEC17
:102CC4001DF0F28EF28C9FEC1DF0600E0B6E390E2F
:102CD4000C6ECBEC1DF00001EA51EC25C46FEB51F6
:102CE400ED21C56FECC00BF0EDC00CF00D6A0E6A5F
:102CF400000E87EC15F00BC0B8F00CC0B9F00DC095
:102D0400BAF00EC0BBF0C4C00BF0C5C00CF00D6A25
:102D14000E6A000E87EC15F00BC0BCF00CC0BDF0C1
:102D24000DC0BEF00EC0BFF0000E286E000E296E5E
:102D3400C80E2A6E420E2B6EBCC00FF0BDC010F040
:102D4400BEC011F0BFC012F0B8C00BF0B9C00CF097
:102D5400BAC00DF0BBC00EF02DEC11F00BC024F086
:102D64000CC025F00DC026F00EC027F018EC0FF0B3
:102D740024C03DF025C03EF026C03FF027C040F0FF
:102D8400000E416E000E426E480E436EC20E446E3B
:102D9400B7EC0CF03DC0C0F03EC0C1F03FC0C2F083
:102DA40040C0C3F09FEC1DF0000E0D6E000E0C6EC3
:102DB4008CEC1DF00F0E0001B06FECC0B1F0EDC053
:102DC400B2F071EC1DF0000E0D6E400E0C6E8CEC2A
:102DD4001DF00F0E0001B06FC4C0B1F0C5C0B2F059
:102DE40071EC1DF0000E0D6E140E0C6E8CEC1DF0CB
:102DF400010E0001B06FC0C0B1F0C1C0B2F0C2C0DA
:102E0400B3F0C3C0B4F071EC1DF01A0E0001B76F3B
:102E14005E0EB66F6E0EE82EFED7B62FFCD7B72F18
:102E2400FAD700006DEF16F06CEF00F00001E9BF77
:102E34001EEF17F020EF17F021EF17F0EE93E9BF24
:102E440028EF17F026EF17F02EEF17F0000E2B6E79
:102E5400010E2A6E32EF17F0E8C02AF0E9C02BF019
:102E6400E6C02CF0E7C02DF0000E2F6E4F0E2E6E34
:102E7400000E01014F6F69EF17F02E06D8A02F0640
:102E8400000E2E24D96E010E2F20DA6E28C00BF00E
:102E940029C00CF0000E0E6E0A0E0D6E42EC1BF0F3
:102EA4000B50300FDF6E2A06D8A02B062C06D8A0B4
:102EB4002D0628C00BF029C00CF0000E0E6E0A0E71
:102EC4000D6E97EC1AF00BC028F00CC029F02E50B0
:102ED4002F10D8B470EF17F072EF17F09DEF17F0C2
:102EE40028502910D8A479EF17F07BEF17F03FEFA3
:102EF40017F02BBE88EF17F02B5006E12A04D8B048
:102F040086EF17F088EF17F03FEF17F02DBE93EF21
:102F140017F02D5008E12C04D8A093EF17F095EF8B
:102F240017F09DEF17F00001EEB39BEF17F09DEF44
:102F340017F03FEF17F026C01DF027C01EF0000E5B
:102F44002E241F6E010E2F20206E2CC021F02DC0C8
:102F540022F00BEC1BF012000D340E34146E1450DE
:102F6400D8A4B7EF17F0B9EF17F0C3EF17F0000EBE
:102F74000B6E000E0C6E000E0D6E000E0E6E30EF1A
:102F840018F00BC00FF00CC010F00DC011F00EC003
:102F940012F0200ED3EF17F0D89012321132103203
:102FA4000F32E82ECEEF17F00F50136E0D8EFF0E7A
:102FB4000B16FF0E0C16FF0E0D16000E0E16960EB7
:102FC400145E14BEEAEF17F0E8EF17F000EF18F004
:102FD4001450800A970FD8B0F2EF17F0F4EF17F0FF
:102FE400F6EF17F0B9EF17F0D8900E320D320C321D
:102FF4000B32143EF6EF17F018EF18F01F0E14649E
:1030040006EF18F008EF18F010EF18F0B9EF17F00A
:10301400D8900B360C360D360E3614061450D8A440
:1030240016EF18F018EF18F00AEF18F01350D8B490
:103034001EEF18F020EF18F028EF18F00E1E0D1EEA
:103044000C1E0B6C000E0C220D220E220BC00BF07A
:103054000CC00CF00DC00DF00EC00EF01200000EEE
:103064003D14456E000E3E14466E800E3F14476EAE
:103074007F0E4014486E4550461047104810D8A49F
:1030840046EF18F048EF18F050EF18F0000E3D6EC0
:10309400000E3E6E000E3F6E000E406E000E411498
:1030A400456E000E4214466E800E4314476E7F0E2A
:1030B4004414486E4550461047104810D8A465EF94
:1030C40018F067EF18F06FEF18F0000E416E000E65
:1030D400426E000E436E000E446E40AE74EF18F064
:1030E40076EF18F07FEF18F03D6C3E1ED8B03E2A04
:1030F4003F1ED8B03F2A800E405644AE84EF18F0ED
:1031040086EF18F08FEF18F0416C421ED8B0422AB7
:10311400431ED8B0432A800E4456000E3D1A000EBA
:103124003E1A000E3F1A800E401A000E411A000E7D
:10313400421A000E431A800E441A41503D5C42501C
:103144003E5843503F5844504058D8B0ACEF18F064
:10315400AEEF18F0B1EF18F0D890B2EF18F0D880B5
:103164001200E2C015F0E3C016F0E4C017F0E5C0A9
:1031740018F00BC015F00CC016F00DC017F00EC0FF
:1031840018F015C00FF016C010F017C011F018C0D9
:1031940012F0180ED3EF18F0D89012321132103208
:1031A4000F32E82ECEEF18F00F50136E146A13503E
:1031B4001410D8A4E0EF18F0E2EF18F002EF19F0C1
:1031C400D89015340F6E1634106E1734116E1834EF
:1031D400126E0F50101011101210D8A4F4EF18F042
:1031E400F6EF18F0FCEF18F0000E0C6E020E0B6EEA
:1031F40031EF19F0000E0C6E030E0B6E31EF19F067
:1032040013281410D8A409EF19F00BEF19F02DEFBF
:1032140019F015C00FF016C010F017C011F018C047
:1032240012F0090ED8900F36103611361236E82EE9
:1032340014EF19F00F50101011101210D8B425EF1C
:1032440019F028EF19F0010E29EF19F0000E0B6E9A
:103254000C6A31EF19F0000E0C6E040E0B6E1200A6
:103264000F501010D8B439EF19F03BEF19F044EFB8
:1032740019F00F501010D8A442EF19F044EF19F0D0
:1032840049EF19F00D50ADEC1DF096EF19F020EE5A
:103294000AF00F50D9261050DA22DE50DE10D8B4CE
:1032A40056EF19F058EF19F073EF19F020EE0AF009
:1032B4000F50D9261050DA2210EE03F00F50E126F9
:1032C4001050E222DE50E65CE650800A156EDE50B5
:1032D400800A1558D8B071EF19F073EF19F096EF12
:1032E40019F020EE03F00F50D9261050DA22DECF69
:1032F40011F0DDCF12F00FC0D9FF10C0DAFFDECF1E
:1033040013F0DDCF14F011501324D96E1250142091
:10331400DA6E0DC0DFFF20EE03F00F50D9261050F7
:10332400DA22DE2A000EDD2212005150C60FD96EB9
:10333400DA6ADF6AABA4A1EF19F0A3EF19F0B6EFD4
:1033440019F05150C60FD96EDA6A0001DF8202D833
:10335400B6EF19F00500FA6EF551FD6EF651FE6EEA
:10336400F850FF6EFA501200ABA2BBEF19F0BDEF9C
:1033740019F0D0EF19F05150C60FD96EDA6A000176
:10338400DF8402D8D0EF19F00500FA6EF351FD6E18
:10339400F451FE6EF850FF6EFA5012005150C60FF1
:1033A400D96EDA6ADF50D8B4DAEF19F0DCEF19F02D
:1033B400ECEF19F002D8EAEF19F005000001FA6EFB
:1033C400F151FD6EF251FE6EF850FF6EFA5012008C
:1033D400EEEF19F04DEC1DF01200000E0B14136EFD
:1033E400000E0C14146E800E0D14156E7F0E0E1448
:1033F400166E1350141015101610D8A404EF1AF0FA
:1034040006EF1AF00EEF1AF0000E0B6E000E0C6EA3
:10341400000E0D6E000E0E6E000E0F14136E000ED5
:103424001014146E800E1114156E7F0E1214166E85
:103434001350141015101610D8A423EF1AF025EF0A
:103444001AF02DEF1AF0000E0F6E000E106E000E23
:10345400116E000E126E0F500B180FE110500C1865
:103464000CE111500D1809E112500E18D8B43DEFBB
:103474001AF03FEF1AF042EF1AF0D89043EF1AF027
:10348400D8801200000E156E000E146E1150D96E05
:10349400DA6ADFCFF6FF0F0EF76E0800F5502A0A3E
:1034A400D8A457EF1AF059EF1AF07FEF1AF0115021
:1034B400D96EDA6ADF2A1250D96EDA6A020EDF2672
:1034C400DF5CD96EDA6ADECF14F0DECF15F092EF4E
:1034D4001AF014C00BF015C00CF0000E0E6E0A0E9C
:1034E4000D6E3AEC1DF013500B24146E000E0C20DC
:1034F400156E1150D96EDA6ADF2A1150D96EDA6A64
:10350400DFCFF6FF0F0EF76E0800F550D00F136EE5
:10351400090E136490EF1AF092EF1AF06BEF1AF0A1
:1035240014C011F015C012F01200000E116E000E3E
:10353400106E0D500E10D8B4A2EF1AF0A4EF1AF0CA
:10354400CCEF1AF0010E0F6EACEF1AF0D8900D36D6
:103554000E360F2A0EAEB1EF1AF0B3EF1AF0A8EF41
:103564001AF0D890103611360D500B5C0E500C58D2
:10357400D8A0BFEF1AF0C1EF1AF0C6EF1AF00D5041
:103584000B5E0E500C5A1080D8900E320D320F2E56
:10359400B3EF1AF010C00BF011C00CF012009D9A9A
:1035A4002E0E0B6E330E0C6EB7EC1DF09D98B20E02
:1035B4000B6E380E0C6EB2EC1DF0080EA76E900E5A
:1035C400AB6E240EAC6E080EAF6E020E7D6EB00EA6
:1035D4000B6E3B0E0C6EC1EC1DF0A00E0B6E3B0E81
:1035E4000C6EBCEC1DF0A60E0B6E3B0E0C6EC6EC06
:1035F4001DF0000E4E6E000E546E000E536E080E3B
:10360400526E000E516E000E506E000E4F6E9D8A6B
:10361400120022BE12EF1BF010EF1BF016EF1BF08E
:10362400000E226E000E216E000E256E000E246E1A
:1036340028EF1BF0000E0E6E200E0D6E1DC00FF055
:103644001EC010F032EC19F0244A252A2150245CC3
:103654002550800A236E2250800A2358D8A035EFC3
:103664001BF037EF1BF01CEF1BF01FC016F020C03F
:1036740017F01DC018F01EC019F037EC1CF0120032
:103684000D500E10D8B449EF1BF04BEF1BF06FEF49
:103694001BF0010E0F6E53EF1BF0D8900D360E3653
:1036A4000F2A0EAE58EF1BF05AEF1BF04FEF1BF032
:1036B4000D500B5C0E500C58D8A063EF1BF065EF57
:1036C4001BF069EF1BF00D500B5E0E500C5AD89096
:1036D4000E320D320F2E5AEF1BF00BC00BF00CC044
:1036E4000CF012000EBE79EF1BF07BEF1BF085EFA0
:1036F4001BF00BC00BF00CC00CF00DC00DF00EC095
:103704000EF09EEF1BF00BC00FF00CC010F00DC0BC
:1037140011F00EC012F00F1E101E111E121E0F2AE1
:10372400000E1022112212220FC00BF010C00CF058
:1037340011C00DF012C00EF012000B6E5250D8B42E
:10374400A6EF1BF0A8EF1BF0A0EF1BF09DB8ADEFA8
:103754001BF0AFEF1BF0B3EF1BF00BC0ADFFC6EFD8
:103764001BF09D985450D60FD96EDA6A0BC0DFFF58
:10377400542A070E5464C1EF1BF0C3EF1BF0C5EFCE
:103784001BF0000E546E52069D8812000DC014F0FA
:103794000EC015F00BC012F00CC013F0E2EF1BF0DA
:1037A40014C0D9FF15C0DAFFDF50116E144A152A70
:1037B40012C0D9FF13C0DAFF11C0DFFF124A132A67
:1037C4000F06D8A010060F2806E11028D8A4EDEFA4
:1037D4001BF0EFEF1BF0D2EF1BF01200000E000104
:1037E400681B000E691B000E6A1B800E6B1B64C0F5
:1037F4003DF065C03EF066C03FF067C040F068C071
:1038040041F069C042F06AC043F06BC044F0B7ECC9
:103814000CF03DC064F03EC065F03FC066F040C0AF
:1038240067F01200AEC04BF023EF1CF0ACC09FF069
:10383400ADC0A0F04B0E0001A16FAFC0A2F0FAEC36
:1038440012F04BC0F6FF0F0EF76E0800F55000099A
:10385400D8A42FEF1CF031EF1CF018EF1CF0000E71
:103864000001AD6F000EAC6F1200000E1C6E000E56
:103874001B6E48EF1CF01AC00DF00E6A18C00FF052
:1038840019C010F032EC19F01B4A1C2A1B501624E4
:10389400D96E1C501720DA6EDF501A6E1A50D8A455
:1038A40056EF1CF058EF1CF03DEF1CF01200080E10
:1038B40052605FEF1CF061EF1CF075EF1CF0535089
:1038C400D60FD96EDA6ADF50AD6E532A070E5364F1
:1038D4006EEF1CF070EF1CF072EF1CF0000E536ED4
:1038E400522A76EF1CF09D9812000BC00FF00CC00A
:1038F40010F00D2A0D040E6E0EC0F6FF0F0EF76EBB
:103904000FC0D9FF10C0DAFF0F4A102A0800F5CF04
:10391400DFFFDF50D8A491EF1CF093EF1CF07BEF96
:103924001CF012000B500C100D100E10D8B49DEFAB
:103934001CF09FEF1CF0A7EF1CF0000E0B1A000EFA
:103944000C1A000E0D1A800E0E1A0BC00BF00CC0D0
:103954000CF00DC00DF00EC00EF01200050E0F019C
:103964005019D8A4B8EF1CF0BAEF1CF0C2EF1CF049
:1039740003C0ECF004C0EDF0040E506FC8EF1CF06F
:1039840003C0EAF004C0EBF0050E506FA494A6EC5B
:103994001DF0120001EE00F0500EEE6AE806FDE1A3
:1039A40000EEC6F0290EEE6AE806FDE100EE4CF0EA
:1039B400090EEE6AE806FDE155905592000EF86E88
:1039C400000161EF16F0A49451CF05F052CF06F038
:1039D40005C003F006C004F002D8FCEF1CF005009B
:1039E4000001FA6EEF51FD6EF051FE6EF850FF6E5D
:1039F400FA5012001200000EAA6E000ECF6E000ED6
:103A0400CE6E9E90CE50CFCF0BF00C6A0BC00CF054
:103A14000B6A0B104C6E0C504D6E010ECD6E1200E5
:103A2400000E896E000E8A6E000E8B6EEF0E926E83
:103A34009368BF0E946E1F0E0F015D6F070E5C6FCF
:103A4400000E5B6FF18E1200CDA42BEF1DF02DEF55
:103A54001DF035EF1DF0CD900250CF6E01C0CEFFAA
:103A6400CD8039EF1DF00250CF6E01C0CEFF1200A1
:103A74000B500D02F3CF0FF0F4CF10F00B500E02E9
:103A8400F35010260C500D02F35010260FC00BF00B
:103A940010C00CF012005150CE0FD96EDA6AAECFBE
:103AA400DFFF512A070E51645AEF1DF05CEF1DF041
:103AB4005EEF1DF0000E516E4F2A1200050E0F012D
:103AC400506F000E516F000E526FB20E0B6E3B0E14
:103AD4000C6ECBEC1DF09992A494A3841200B10E49
:103AE4000001B56F000EAC6F000EAD6FB0C0AEF04C
:103AF400B50EAF6F14EC1CF01200D6EC1DF012ECF6
:103B04001DF096EC1DF060EC1DF0FDEC1CF0D1EC0A
:103B14001AF01200FE0E9FEC1BF0450E9FEC1BF0FA
:103B24000C509FEC1BF01200600ED36E000ED26E90
:103B3400000E9B6E000E9A6E1200FE0E9FEC1BF0A0
:103B4400510E9FEC1BF012004CC001F04DC002F06E
:103B540026EC1DF012000C6E0C509FEC1BF01200B2
:103B64000BC0F9F00CC0FAF012000BC0F7F00CC057
:103B7400F8F012000BC0F3F00CC0F4F012000BC00C
:103B8400F5F00CC0F6F012000BC0F1F00CC0F2F02E
:103B940012000BC0EFF00CC0F0F01200AB98AB8831
:103BA40012004DEC1DF01200D09E12001200120003
:020000040030CA
:0E00000015027F50FF8991FF0FC00FE00F40E7
:00000001FF
